:0400000080314E28D5
:100008007E14803120007F08F1000130911E0039F4
:100018002100911E0039091C4928911220009112D3
:1000280023001908F0007008F2009D1C1E289D107E
:100038001D121D167C08031D3628AA307206031DE2
:100048002A280130F0007008FD074728A5307206FD
:10005800031D342804307D02031C3428FC01FC0AEB
:10006800FD01472850307202031C46285D30720299
:10007800031846287208B03EF00070082000C0003F
:10008800C101C10AFC012100911671082000FF007E
:100098007E10090080315028FB01FC01FD01203051
:1000A800840000308500253086310D268031A0304F
:1000B800840000308500463086310D267E102000F1
:1000C8008431822C2000CD002100A001A101A201D1
:1000D800A3012000CE0111304E02031808004E087B
:1000E800031986284E08203E8600870101081F391B
:1000F800E03EC9004E08CA000130CA35FF3E031D64
:10010800812891284D081F39E03EC9004E08CA00D1
:100118000130CA35FF3E031D8D284A35043EA03EF6
:1001280086008701490881004E08203E8600870125
:1001380019300106031DFA280330F3000030F400DB
:100148007A08C900CA014908F5004A08F60084314E
:1001580030248031730809072000CB004E08CC00FA
:100168000130CC35FF3E031DB5284C35053EA03E79
:10017800860087014B0881000330F3000030F4004B
:100188007908C900CA014908F5004A08F60084310F
:1001980030248031730809072000CB004E08CC00BA
:1001A8000130CC35FF3E031DD5284C35063EA03E18
:1001B800860087014B0881000330F3000030F4000B
:1001C8007808C900CA014908F5004A08F6008431D0
:1001D80030248031730809072000CB004E08CC007A
:1001E8000130CC35FF3E031DF52858294E08203E26
:1001F800860087010F300106031D5F290330F300D5
:100208000030F4007A08C900CA014908F5004A0814
:10021800F60084313024803173082000CB004E086A
:10022800CC000130CC35FF3E031D16294C35053E68
:10023800A03E860087014B0881000330F3000030A0
:10024800F4007908C900CA014908F5004A08F6000F
:1002580084313024803173082000CB004E08CC0054
:100268000130CC35FF3E031D35294C35063EA03EF6
:10027800860087014B0881000330F3000030F4004A
:100288007808C900CA014908F5004A08F60084310F
:100298003024803173082000CB004E08CC00013098
:1002A800CC35FF3E031D54294C35073EA03E860041
:1002B80087014B088E297A08C9004E08CA00013008
:1002C800CA35FF3E031D64294A35053EA03E860017
:1002D8008701490881007908C9004E08CA00013021
:1002E800CA35FF3E031D74294A35063EA03E8600E6
:1002F8008701490881007808C9004E08CA00013002
:10030800CA35FF3E031D84294A35073EA03E8600B4
:100318008701490881000130C9004908CE076F28C4
:10032800F9007908803A7A3E0318E929FA017A082F
:10033800803A6F3E0318D7297908F300F401F31BBC
:10034800F4030330F5000030F60085314D25813186
:100358007A082000C500C601C51BC6034608803AB6
:10036800C7007408803A4702031DBC297308450278
:100378000318C82919302000C5007A08203E8600D5
:10038800870145088100CD297A08203E860087012B
:10039800810101302000C5004508FA077A08803A33
:1003A8006F3E031CA0290F302000C5000330C60093
:1003B8004608F30079088531E325FF3E203E860094
:1003C80087012000450881000800FA017A08803A70
:1003D8006F3E031808007A082000C500C601C51B37
:1003E800C6037908C700C801C71BC8034708FE3EF3
:1003F800F300FF30483DF4000330F5000030F6000C
:1004080085314D2581317308FF3E2000C900FF303A
:10041800743DCA004A08803ACB004608803A4B022D
:10042800031D182A4508490203181C2A1E301D2AD4
:1004380019302000C5007A08203E8600870145084B
:1004480081000130C5004508FA07EA292100A0010A
:10045800A101A201A3012000C50111304502031822
:10046800B42A450803196F2AEA30F9004508FA004A
:100478000130FA35FF3E031D3D2A7A35043EA03E81
:1004880086008701790881004508F9000130F935AF
:10049800FF3E031D4B2A7935053EA03E86008701A5
:1004A80081013230F9004508FA000130FA35FF3E83
:1004B800031D5A2A7A35063EA03E86008701790830
:1004C80081003230F9004508FA000130FA35FF3E64
:1004D800031D6A2AA52AFE30F9004508FA000130F2
:1004E800FA35FF3E031D742A7A35043EA03E860085
:1004F8008701790881004508F9000130F935FF3E88
:10050800031D822A7935053EA03E860087018101B8
:10051800FA30F9004508FA000130FA35FF3E031DAC
:10052800912A7A35063EA03E860087017908810027
:10053800DC30F9004508FA000130FA35FF3E031DAA
:10054800A12A7A35073EA03E8600870179088100F6
:100558000130F9007908C50711304502031C352A16
:100568008531D125080020003A083B060319080008
:100578000C2B8531F4258231F430F3000130F4007E
:1005880085310C25080082312A22080082312A226E
:100598000800C8302000D8005808CF00D001C83063
:1005A8008331182308008531BF25080082312A22AB
:1005B80008002000CF01D001C8308331182308007B
:1005C800C8302000D8005808CF00D001C830833187
:1005D800182308008531BF250800C8302000D8003E
:1005E8005808CF00D001C8308331182308002000F4
:1005F800CF01D001C830833118230800C83020004B
:10060800D8005808CF00D001C8308331182308001B
:1006180020003B0884000C300402031808008531D0
:100628000435803E820008002000D600D501D401A0
:1006380032305502031808004108031D0800D7018D
:10064800D70A6D2B0630570203182C2B5708392B65
:100658000930200057020318332B0630392B093094
:1006680020005706031D4B2B05308131942183311F
:1006780020005608D1005108F8004F08D20052084F
:10068800F9005008D3005308FA001E305B2B0A30DB
:1006980020005702031C612B0530813194218331DE
:1006A800F801F80AF901F90AFA01FA0A003080316A
:1006B800662083318531D12583311930F30000302C
:1006C800F40085310C25833101302000D100510818
:1006D800D707143057020318742B54080319262B14
:1006E8000130D1005108D5071C2BFF30F9007908DB
:1006F8002000BC000E1A8A2B3230F3000030F400C0
:1007080085310C25833120000E1EBC018C18982BD6
:100718003230F3000030F40085310C25833120009D
:100728008C18982BBC01BC0A8E19A82B3230F30008
:100738000030F40085310C25833120008E19A82B58
:100748000230F9007908BC000C18B82B1E30F300F1
:100758000030F40085310C25833120000C18B82BAB
:100768000330F9007908BC008E1D8C18CA2B323072
:10077800F3000030F40085310C25833120008E1DF4
:100788008C18CA2B0530F9007908BC00BD013C0A59
:10079800031908007B083C06031908007B0A031D9F
:1007A8000800BD01BD0A0800F5007508F3007308CC
:1007B800F6008030F3007308F40022000E14F61FD0
:1007C800E72B0C12E82B0C160E100000000022007C
:1007D8000E14761FF12B0C12F22B0C160E100000C3
:1007E800000022000E14F61EFB2B0C12FC2B0C161C
:1007F8000E100000000022000E14761E052C0C12AC
:10080800062C0C160E100000000022000E14F61D17
:100818000F2C0C12102C0C160E10000000002200D9
:100828000E14761D192C0C121A2C0C160E10000022
:10083800000022000E14F61C232C0C12242C0C167B
:100848000E100000000022000E14761C2D2C0C1235
:100858002E2C0C160E1008002000C601F41F3B2C8D
:10086800F309F409F30A0319F40AC601C60AF61FC4
:10087800462CF509F609F50A0319F60A0130F700BE
:100888007708C606C701C801730874040319752CD4
:10089800C501C50AF41B5A2C0130F335F40D890B38
:1008A800512C0130F7007708C5074E2C0130C735A9
:1008B800C80D890B5B2C74087602031D652C730820
:1008C8007502031C6C2C7308F5027408F63B471478
:1008D8000130F436F30C890B6D2C0130C502031D71
:1008E8005A2C460803197D2CC709C809C70A0319D9
:1008F800C80A4808F4004708F300080086310226B1
:10090800843185312F258431C830F3000030F4005C
:1009180085310C25843122008E140E100C12823180
:100928002A2284312000BB010C30D9005908BA00B2
:10093800BD01FF30D9005908BC00FF30D900590863
:10094800FB00BE01FD01FC01C101C001210091169F
:100958000B178B17E830F3000330F40085310C25B2
:1009680084318531F425843120003C08D9005908A8
:10097800FB008331792384318431CA248431003ADD
:100988000319B82C8231B7228431B82C2000C60153
:10099800C5013B08F9007908BA00FB2CED2C85311C
:1009A80098258431F90079082000BB003A083B06F5
:1009B8000319E02CC601C60A3B080319052D2200BD
:1009C8008E166430F3000030F40085310C25843134
:1009D800052D853198258431F90079082000BB0060
:1009E8003A083B060319052DC601C60A052D3B0822
:1009F80084000C3004020318052D85310435683E47
:100A08008200FF30F90079082000BC004608080081
:100A1800F501F60174087602031D142D730875029A
:100A280003180800F701F80100307802AA3003190A
:100A3800770203182A2D0130F7070030F83D0030FF
:100A48007802AA3003197702031C1F2D0130F5071D
:100A58000030F63D0E2D22008C018E01EF30210072
:100A68008C00EC308E0022009D1323001E121E11F4
:100A78009D179F1167309B009C011D16210095133F
:100A880023008C018E0122000C148C148E150E1676
:100A98000800F701F801731C552D7508F70776084B
:100AA800F83D0130F535F60D890B562D0130F43639
:100AB800F30C890B5B2D73087404031D4F2D780804
:100AC800F4007708F30008008431D22C8431D32C49
:100AD8008431ED2C8431ED2C8431ED2C8431ED2CD6
:100AE8008431ED2C8431ED2C8431ED2C8431ED2CC6
:100AF8008431ED2C8431ED2C8231BD2A8231C72A14
:100B08008231CA2A8231CD2A8231D72A8231DA2A21
:100B18008231DD2A8231E42A8231EE2A8231F12AB9
:100B28008231FB2A8331022B20004108031DA22DAC
:100B380023001D1D982D9D139D17982D4103031DFE
:100B4800AA2D4008F3007308F400C10174080800D6
:100B5800F400F50111307502031808007408F30059
:100B68007508203E86008701730881000130F30074
:100B78007308F507AE2D1E308531AC258531C83098
:100B88002000CF004F08F800F901FA011E3080312B
:100B9800662085318531D1250800F8014830780272
:100BA800031808007808A03E8600870101088331F1
:100BB800D82385310130F7007708F807D22DF600E1
:100BC800F501761CEB2D7308F4007408F507031083
:100BD800F30D0310F60C7608031DE52D75080800C3
:100BE8000130813194218531F801F901FA01003091
:100BF8008031662085318531D1250800FC302100FF
:100C08009905991319088739703899001A1A080034
:0E0C18000A2E640080010131890B0E2E00347B
:020000040001F9
:04000E00A4EFFFDE7E
:00000001FF
